:4000000000800020110000000D3F00000D3F000008B5044B1A6803F53F5302331A6003F07DFF00BFFA46004010B5054C237833B9044B13B10448AFF300800123237010BD60
:400040005081FF1F0000000078550000084B10B51BB108490848AFF300800848036803B910BD074B002BFBD0BDE81040184700BF000000005481FF1F78550000C880FF1F58
:400080000000000010B5264A264B1A60002444E003F0F0FF0446002841D00D2810D1224B1A781A44002111711A78D2B283F844201970012283F845201C4800F041FD2CE03E
:4000C00008280DD1184B1B7813F0FF0F25D0184800F036FD144A1378013BDBB213701CE0114B1B78DBB23F2B06D9124800F028FD00220D4B1A7010E0A0F12003DBB25E2B50
:400100000BD8094A13781344187113780133DBB213700146084800F017FE002CB8D010BDF5400000008DFF1F6C81FF1F84550000885500008C55000098550000F0B589B0E5
:400140000446014601A802F00FF9074600282DD1204605F078F905461EE0164B1B7A13F0100F0FD0144A138801331380EEB22F23A355701C1149204405F05DF90023A35572
:4001800057B113E00E4A138801331380094B1B680C4A11680B441360064901A802F01CF9074618B9034B5B7A002BD6D1384609B0F0BD00BF8883FF1FBC83FF1F9183FF1FB5
:4001C0001084FF1F3887FF1F70B5064604F034FA002413E025460B4B234493F8480004F019FA04F00BFA10F0010FFAD004F01EFA044B1D4485F858000134E4B2B442E9D9DD
:4002000070BD00BF6C81FF1F38B52E4B93F8683033BB2D4800F094FC002004F03FF9012004F088F9274C722384F84830012584F84950742384F84A30272384F84B307523DC
:4002400084F84C30A82384F84D300520FFF7BCFF284604F06FF9284604F020F984F86850F322184B83F84820012306E0154A1A44FF2182F848100133DBB20B2BF6D9002079
:4002800004F00CF9012004F055F90C20FFF79CFF012004F04FF9012004F000F90B4800F04FFC012408E0074B234493F85810084800F04AFD0134E4B20C2CF4DD054800F0DB
:4002C0003FFC38BD6C81FF1F9C550000A8550000D0550000D855000038B53F4B93F86940072C10D918E03C4A1A4492F86C5004EB8400010139480144CD54002182F86C1027
:400300000133DBB200E000234F2BECD90134324B83F8694000245BE000222F4B83F86920F8E72E4DA200111908012844C05C2C49C8542244110129440022CA540133DBB2B7
:4003400000E000234F2BECD90021254803F096FA013806283AD8DFE800F0040D1F28163931001F491F4803F0F1FA78BB1E4800F0E7FB2BE01A491D4803F034FB30BB1C48C6
:4003800000F0DEFB22E016491A4803F0EDFBE8B9194800F0D5FB19E01149184803F068FBA0B9174800F0CCFB10E00D49154803F0A7FB58B9144800F0C3FB07E008491348B6
:4003C00003F000FC10B9124800F0BAFB0134E4B2072CB6D938BD00BF6C81FF1FAC87FF1FC083FF1F3883FF1FE05500005C84FF1F005600001484FF1F205600005887FF1FBD
:4004000040560000CC84FF1F60560000A884FF1F8056000008B52C4B93F8BC3013F0FF0F36D008BD03F010FF034600284AD00D2811D1254A92F8BD101144002081F86C0097
:4004400092F8BD10C9B282F8BE1082F8BD00012182F8BC101DE01C4A92F8BD20D2B24F2A04D90021184A82F8BD1012E0A0F12002D2B25E2A0DD8144991F8BD200A4482F834
:400480006C0091F8BD200132D2B281F8BD2000E00023002BC6D00C4B93F8BC30DBB2012B10D1FFF719FF002306E0074A1A44002182F86C100133DBB2502BF6D90022024BDA
:4004C00083F8BC2008BD00BF6C81FF1F70B582B0534B1A68534B9A420CD1012003F0EAFF4FF4FA6004F026F802F08CFD10F0800FFAD011E003F0EAFF70B94B4800F020FB34
:40050000012003F0D7FF4FF4FA6004F013F802F079FD10F0800FFAD0444B5B68012B65D00121002002F0F4FD414BDC68E4B19868642303FB04F390FBF3F503FB150004F041
:40054000FDFB0646C4EB0414A00004F0F7FB0146304604F0FBFC0446284604F0EFFB214604F038FB014600E03249012002F0D6FD2F4B5C68E4B11868642303FB04F390FB3C
:40058000F3F503FB150004F0D9FB0646C4EB0414A00004F0D3FB0146304604F0D7FC0446284604F0CBFB214604F014FB014600E02049022002F0B2FD1C4B5968032002F013
:4005C000A7FD02F037FD4FF47A72002304F05AFD0146042002F09CFD02F0C0FD144A1169936952690931144800F0AEFB0C4B1A680C4B9A4212D10DF106010DF1070002F046
:4006000093FD9DF80630002BF5D1C82003F092FF0A4800F095FA002003F04CFF02B070BDCC80FF1F4CF10700A05600005887FF1FCC84FF1F0000C07FB4560000D85600006E
:40064000F8B503F009FD03F0F1FD03F0CDFE934A934B1A6004F094F804F03EF804F0B2F804F0A2F804F014F803F0B0FF04F032F804F022F802F082FD8A4804F0D7F88A4884
:4006800004F084F9894804F0A9F962B6002004F0A7F8012003F00EFF4FF47A7003F04AFF834800F04DFA002409E02146814800F04BFB0134E4B24FF47A7003F03BFF02F081
:4006C000A1FC10F0800FF0D001227B4B83F8BF207A4800F035FA04F0F3F94FF4FA7003F029FF02F0A7FC4FF47A72002304F0CAFC0146734800F028FB6F4B93F84530DBB245
:40070000012BF9D16C4B93F8443013F0FF0F03D16C4800F015FA60E1674B1B79413B322B00F25881DFE813F0FE0056015601560156015601560156015601560156015601C5
:4007400033005601560156015601500153015601560156015601560156015601560156015601560156015601FE00560156015601560156015601560156015601560156011F
:4007800033005601560156015601500153014E4A0121002002F06EFA20B94B4B19684B4800F0D2FA4A4A0221002002F063FA20B9474B1968474800F0C7FA434A032100206F
:4007C00002F058FA20B9404B1968434800F0BCFA424A0A21002002F04DFA20B93F4B19783F4800F0B1FA3F4D00232B803E4E33603E4F3B803E48FFF7A1FC3E4C20703B88C2
:40080000326829883C4800F09FFA3C493C4801F013FE207018B93B493B4800F095FA3B483B4B03600122364901F022FA314B187068BB364BD968374800F086FA1E4C04F11C
:40084000C003782204F1C401304801F0C1FA0023C4F844310BE0184C234493F8C4102E4800F072FAD4F844310133C4F84431124AD2F84431D2F8C0209342ECD3772ADDD82D
:40088000264800F061FA214801F0AEFCA5E0244800F05AFA1D4801F0A7FC9EE0F5400000008DFF1F450A00008500000015040000F0560000045700006C81FF1F08570000F7
:4008C00020570000305700008083FF1F385700003483FF1F4C570000605700003083FF1F7C5700001084FF1F3887FF1FBC83FF1FF4570000A887FF1F90570000A483FF1FC7
:40090000B4570000AD83FF1FC0570000F084FF1FCC8AFF1FC857000098550000D4570000E45700002F49304801F086FD2F4B187018B92F492F4800F007FA12222A492E489B
:4009400001F096F9294B1870002839D12A48C16801F05AFC254B187038BB274D2946432001F08CFD254C2060284601F0EDFB244E2168304600F0E8F9224A2349284601F08B
:40098000C9FD2060284601F0DFFB2168304600F0DBF929461D4801F095FD2060284601F0D3FB2168304600F0CFF9134801F01CFC0E4B1870012810D1154800F0C5F90CE0F4
:4009C000144800F0C1F908E0FFF71EFC05E0FFF77DFD02E0104800F0B3F800220F4B83F8452089E6A483FF1FB4570000A887FF1FAD83FF1FC0570000F084FF1FA083FF1F2F
:400A0000F8570000085800001C580000205800002C5800003C580000305700006C81FF1F08B504F0B7F820B94FF41372034B1A6008BD034A014B1A6008BD00BFCC80FF1FE2
:400A40004CF1070008B5254B93F8483113F0FF0F17D101222249234801F0DEF8224B187028B91F49214801F07FFC1F4B18701E4B1B7833B91B4A1E4B1A600122174B83F813
:400A80004821FFF7CDFF154BD3F84C31194A1268934212D3114B0022C3F84C2193F8BF30012B0ED1FFF712FD134A1169936952690931124800F048F903E00133074AC2F827
:400AC0004C310F4B5B68032B03D1012003F038FF08BD002003F034FF08BD00BF6C81FF1FF4570000CC8AFF1FA887FF1F3C87FF1F8483FF1FCC80FF1FCC84FF1F4C580000E7
:400B00005887FF1F004870470000613D10B504460A2802D10D20FFF7F9FF074B1B6823B1591C054A11601C7010BD044B1B680BB12046984710BD00BFBC82FF1F008DFF1F4F
:400B400010B5044602E00134FFF7E0FF20780028F9D110BD2DE9F04F85B006468846741C3078002800F0ED80252803D0FFF7CEFF2646F4E7B31C7078302803D1F31CB0787E
:400B8000012706E02D2803D1F31CB078022700E000271E46002406E004EB84046300C418303C30780136A0F13002D2B2092AF3D96C2801D04C2803D147F004073078013614
:400BC000002800F0BE80602803D9A0F12003DBB200E00346A3F14202162A3ED8DFE802F04030373D3D3D3D3D3D3D3D3D3D433D3D3D0C3D373D3D3A00D8F800A008F104083E
:400C0000002500E001351AF80530002BFAD103E02020FFF77BFF4D4617F0020F04D105F10109A542F4D34D465046FFF789FF03E02020FFF76BFF3D466F1CA542F8D38EE71C
:400C400098F8000008F10408FFF760FF87E74FF00A0C0AE04FF0100C07E0FFF757FF7EE74FF0020C01E04FF0080C17F0040F04D0D8F8009008F104080AE0442B04D1D8F818
:400C8000009008F1040803E0D8F8009008F10408442B06D1B9F1000F03DAC9F1000947F008074FF0000E00E0AE46B9FBFCF30CFB1392D2B29946092A06D9782801D12721D3
:400CC00000E007211144CAB20EF10105303204A9714401F8102C0BB10F2DE5D917F0080F06D004AB1D442D2305F8103C0EF1020517F0010F02D04FF0300B01E04FF0200B16
:400D0000A94603E05846FFF701FFD14617F0020F04D109F1010AA145F4D3D146013D04AB2B4413F8100CFFF7F1FE002DF6D103E02020FFF7EBFEA94609F10105A145F7D383
:400D40000DE705B0BDE8F08F0FB400B583B004A951F8040B0191FFF7FDFE03B05DF804EB04B0704704E00A7802701A4601310130531E002AF7D1704702E001701A46013078
:400D8000531E002AF9D1704770B4002301E029463046541E32B1461C03784D1C087822461B1AF4D0184670BC704700BF00E0013003780BB18B42FAD118467047CA7E8B7E48
:400DC00043EA02230278032A05D1487D0A7D42EA002243EA02431846704700BF8176C1F30723C376090C0175090A4175704700BF30B401F10904036953B3406900230EE05D
:400E00005A1CC35C202B09D0052B00D1E523092A02D12E25257001342370013413460A2BEED9C37A0B72C27F837F1B0443EA0263427F43EA0223027F13430B60427E037E6C
:400E400043EA02238B80C27D837D43EA0223CB800023237030BC70472DE9F84F8A460C6800E0013423782F2BFBD05C2BF9D0D0F818800B2220214046FFF77EFF00263346B4
:400E80000827B34603F10109E55C202D54D92F2D52D05C2D50D02E2D01D0B7420BD8082F72D12E2D73D14FEA8B0B5FFA8BFB4B4608260B27E6E715F0800F01D04BF0030BEF
:400EC00005F17F02D2B21E2A04D905F12002D2B21C2A15D8023314F80910A1F14002D2B23E2A03D981F080027C2A53D87A1E964253D2721C08F8065008F802100236C1E7DE
:400F000029462A48FFF752FF002849D1A5F14103DBB2192B02D84BF0020B08E0A5F16103DBB2192B03D84BF0010B203DEDB208F8065001364B46A5E74C44CAF80040202D20
:400F400001D8042300E000236EB398F80020E52A02D1052288F80020082F03D14FEA8B0B5FFA8BFB0BF00302012A01D143F010030BF00C0BBBF1040F01D143F0080388F897
:400F80000B300020BDE8F88F0620BDE8F88F0620BDE8F88F0620BDE8F88F0620BDE8F88F0620BDE8F88F0620BDE8F88F64580000016821B94FF0FF3316E0013200E00A46F5
:400FC0001378202B01D93A2BF7D13A2B0BD110B44C1C0B78303B092B08D8A24209D15BB9013202600AE00023184670474FF0FF3304E04FF0FF3301E04FF0FF33184610BCDA
:40100000704700BFF8B5037903B30446C66A00F13007012332463946407801F0D5FDB8B900232371236AF31AA269934212D2E57808E0A3691E44012332463946607801F006
:40104000C3FD013D012DF4D80020F8BD0020F8BD0120F8BD0020F8BD70B5C36A8B420FD00D460446FFF7CEFF064658B901232A4604F13001607801F06DFD28B9E56204E06F
:40108000002602E0012600E00126304670BD00BF10B50446002303714FF0FF33C362FFF7DBFF80BB94F82F2294F82E3243EA02231BB2194A934228D194F8692094F86830FF
:4010C0001B0443EA026394F8672043EA022394F86620134323F07F43104A934217D094F8852094F884301B0443EA026394F8832043EA022394F88220134323F07F43074A3A
:40110000934206D110BD032010BD022010BD002010BD012010BD00BF55AAFFFF4641540080B108B503687BB1197879B1D988828891420DD1587801F003FD10F0010F09D0DF
:40114000032008BD09207047092008BD092008BD092008BD002008BDF0B585B006461746002303600846FFF723FF051EC0F27D81CD4B53F82540002C00F0798134602378A9
:4011800073B1607801F0DCFC10F0010F08D1002F00F06F8110F0040F40F06D81002092E100232370E8B2607001F00EFC10F0010F40F063811FB110F0040F40F0608100215A
:4011C0002046FFF765FF01281CD000262EE004F130030A0102F5DF7213441A7952B1D87A9A7A120442EA0062587A42EA00221B7A1A4300E0002204AB03EB810343F8102CC8
:40120000013100E000210329E1D9002504AB03EB850353F8106C26B131462046FFF738FF00E0022010B10135032DEFD9032800F02881002840F0278194F83C2094F83B300F
:4012400043EA02231BB2B3F5007F40F01E8194F8471094F8463053EA01210DD194F8572094F856301B0443EA026394F8551043EA012394F854101943A16194F84020E270A3
:40128000531EDBB2012B00F2028101FB02F794F83D30A370002B00F0FC805A1E134240F0FA8094F842E094F8412042EA0E2EA4F808E01EF00F0F40F0F08094F8440094F8D1
:4012C000432052EA00220DD194F8530094F85220120442EA006294F8510042EA002094F85020024394F83F5094F83E0050EA052000F0D58007EB000C0CEB1E1C6245C0F055
:40130000D080CCEB0202B2FBF3F3002B00F0D48040F6F572934201D8012500E002254FF6F572934200D9032502336361E6613218226206EB0C00A062032D14D1BEF1000FC6
:4013400040F0BC8094F85F0094F85E20120442EA006294F85D0042EA002294F85C00024362629B000FE0BEF1000F00F0A9803A446262022D01D15B0005E003EB430203F036
:40138000010303EB520303F2FF13B1EB532FC0F099804FF0FF332361E36080236371032D5AD194F8612094F8603043EA02231BB2012B51D1711C2046FFF74EFE00284BD1DF
:4013C0000023637194F82F2294F82E3243EA02231BB2364A93423FD194F8332094F832301B0443EA026394F8312043EA022394F8302013432E4A93422ED194F8172294F82D
:4014000016321B0443EA026394F8152243EA022394F814221343274A93421DD194F81B2294F81A321B0443EA026394F8192243EA022394F818221343236194F81F2294F8EE
:401440001E321B0443EA026394F81D2243EA022394F81C221343E3602570134A938801339BB29380E38000202DE00B202BE00C2029E0002027E00A2025E0032023E00A20A9
:4014800021E001201FE00D201DE00D201BE00D2019E00D2017E00D2015E00D2013E00D2011E00D200FE000BFC082FF1F55AAFFFF52526141727241610D2004E00D2002E0EB
:4014C0000D2000E00D2005B0F0BD00BF70B50446FFF798FD0546002854D12378032B4AD16379012B47D104F130064FF4007200213046FFF741FC552384F82E32AA2384F8B4
:401500002F32522384F8303084F83130612384F83230412284F83320722184F8141284F8151284F8162284F81732236984F81832C3F3072284F81922C3F3074284F81A2298
:401540001B0E84F81B32E36884F81C32C3F3072284F81D22C3F3074284F81E221B0E84F81F32E2690132E26201233146607801F02BFB0023637100221146607801F07AFB1F
:4015800000B10125284670BD02394369023B994204D28378806A01FB0300704700207047012960D9F8B5436999425ED20C4605460378022B29D0032B3AD0012B57D101EBF5
:4015C0005107016A01EB5721FFF746FD002850D1C7F308032B4493F830600137296A01EB57212846FFF738FD002845D1C7F30807E81990F8300046EA002014F0010F01D036
:401600000009F8BDC0F30B00F8BD016A01EB1421FFF722FD98BB610001F4FF7101F130032B4458780D4495F8303043EA0020F8BD016A01EBD411FFF70FFD18BBA10001F474
:40164000FE7101F130022A44D07893781B0443EA0063507843EA00200D4495F83030184320F07040F8BD012070470120F8BD0120F8BD4FF0FF30F8BD4FF0FF30F8BD4FF03B
:40168000FF30F8BD4FF0FF30F8BD00BFF8B50546C1808468012C35D00E4603685A69944232D21CB91A78032A00D15C6A24B91A8996422BD2586A17E09F783F010EE02146CC
:4016C0002868FFF76DFF0446B0F1FF3F20D0012820D92B685B6998421ED2F61BBE42EED221462868FFF750FFEC60B8B100EB161028612B68303306F00F0603EB46166E6126
:401700000020F8BD0220F8BD0220F8BD0220F8BD0120F8BD0220F8BD0220F8BD0220F8BDF8B501297FD9436999427ED216460C4605460378022B3DD0032B4FD0012B6ED188
:4017400001EB5107016A01EB5721FFF785FC0346002865D1C7F3080214F0010408D0AB1893F8303003F00F0343EA0613DBB200E0F3B22A4482F83030013701232B71296AB5
:4017800001EB57212846FFF767FC0346002847D1C7F3080714B1C6F3071207E0EA1992F8302022F00F01C6F303220A432F4487F8302035E0016A01EB1421FFF74DFC034699
:4017C00070BB610001F4FF7101F130002844294481F83060C6F30722427021E0016A01EBD411FFF739FC0346D0B9A10001F4FE7101F130002844C4788278120442EA0462B5
:40180000294402F07042324381F83020C2F307214170C2F307418170120EC27000E0022301222A7102E0022300E002231846F8BDF8B505460F4629B9C6687EB143699E4291
:401840000ED20EE0FFF7ACFE012841D9B0F1FF3F49D06B69984246D33E4602E0012600E00126344601346B699C4202D3012E31D9022421462846FFF793FE38B1B0F1FF3FAB
:401880002AD0012829D0B442ECD127E06FF0704221462846FFF744FF034630B92FB1224639462846FFF73CFF034663B9EC602B69B3F1FF3F14D0013B2B616B7943F00103AD
:4018C0006B712046F8BD012B0CD14FF0FF30F8BD0120F8BD0020F8BDF8BDF8BD0020F8BD2046F8BD0120F8BD2DE9F041C4880134A3B2002B66D00369002B66D00E46054600
:4019000014F00F0755D101330361C16821B903681B899C425CD24CE000688378013B13EA141346D1FFF73CFE8046012853D9B0F1FF3F53D028684369984533D3002E50D0F1
:40194000E968FFF775FF804600284DD001284ED0B0F1FF3F4ED02868FFF754FB00284CD128684FF4007200213030FFF705FA2E6841463046FFF708FEF06200260BE0012273
:401980001A712868FFF73EFB002839D12A68D36A0133D36201362B689A789642EFD3DA6A921BDA62C5F80C8041462868FFF7ECFD2861EC802B68303303EB47136B61002072
:4019C000BDE8F0810420BDE8F0810420BDE8F0810420BDE8F0810220BDE8F0810120BDE8F0810420BDE8F0810720BDE8F0810220BDE8F0810120BDE8F0810120BDE8F08197
:401A00000120BDE8F08100BF38B504460021FFF73DFEC0B921692068FFF71EFB054698B9606903788BB1C37A13F0080F04D10B22A169FFF7A9F950B100212046FFF754FFA5
:401A40000028E7D038BD38BD38BD042038BD284638BD00BF10B582B0044601910B782F2B01D05C2B01D1013101910023A360019B1B781F2B07D800212046FFF707FE034686
:401A80000022626122E001A92046FFF7E5F90346E0B92046FFF7B8FFA369DA7A034628B1042813D112F0040F0DD00FE012F0040F0CD16169CB7A13F0100F06D02068FFF77C
:401AC0007DF9A060DFE7052300E00523184602B010BD00BF70B504460E460021FFF7D6FD0246B8B9002521692068FFF7B5FA024680B963691B78E52B00D01BB90135B542DB
:401B000001D107E0002501212046FFF7EDFE02460028E8D0042A00D10722104670BD00BF38B505460121FFF7D5FF044690B929692868FFF791FA044660B9202200216869DB
:401B4000FFF71AF90B22A9696869FFF70BF92B6801221A71204638BD70B504460D4604261CE02068FFF778FA0646E0B963691A78C2B1DB7A03F03F03E52A09D02E2A07D087
:401B80000F2B05D0082B14BF00230123AB420AD000212046FFF7A8FE064620B921690029DFD100E004260EB100232361304670BDF8B5012927D904460D464369994224D253
:401BC00000271CE029462046FFF7EAFC064608B301281CD0B0F1FF3F1BD0002229462046FFF79EFD0746A8B92369B3F1FF3F05D001332361637943F00103637135466369CC
:401C00009D42DFD306E0022704E0022702E0022700E001273846F8BD10B584B001900091144604A840F8041DFFF7C2F9002816DB0E4B53F820300BB100221A70019B0BB1B9
:401C400000221A70019B094A42F820304BB1012C09D10022694601A8FFF77EFA04E00B2002E0002000E0002004B010BDC082FF1F2DE9F0438DB00191002800F0A1800546C6
:401C800016460023036002F01F0802F01E0201A905A8FFF761FA002840F0948002AB0B93019905A8FFF7D6FE0A9F044608B907B9062416F01C0F49D04CB1042C03D105A811
:401CC000FFF72EFF044648F008080A9F0AE0FB7A13F0110F03D116F0040F02D102E0072400E00824002C40D118F0080F3DD0FEF709FFB873C0F30723FB73C0F307433B74A3
:401D0000000E78740026FE723E777E77BE77FE7739460598FFF752F8814631463846FFF75DF8059801230371B9F1000F1DD0C66A4946FFF73DFF0446B8B9059809F1FF330C
:401D4000C3603146FFF788F904460EE06CB9FB7A13F0100F06D116F0020F06D013F0010F02D102E0042400E0072444B918F0080F01D048F02008059BDB6AEB612F6214BBC1
:401D800085F806804FF0000885F80780059E39463046FFF713F82861FA7FBB7F1B0443EA02637A7F43EA02233A7F1343EB60C5F80880C5F818802E60F388AB80204603E093
:401DC000092001E000E020460DB0BDE8F08300BF2DE9F84F0446884615461F4600233B60FFF79EF9002840F0AA80E079002840F0A980A37913F0010F00F0A380E668A36888
:401E0000F61AAE42C0F095802E4692E0A268C2F30803002B76D120688378013BDBB213EA522913D10AB9206902E06169FFF7B8FB012803D80220E071BDE8F88FB0F1FF3FF0
:401E400003D10120E071BDE8F88F6061D4F800A061695046FFF798FB054618B90220E071BDE8F88F4D445FEA562B26D009EB0B039AF80220934201D9C9EB020B5B462A4697
:401E800041469AF8010000F065FE18B10120E071BDE8F88FA37913F0400F0BD0A069401B834507D94FF4007204F1240108EB4020FEF758FF4FEA4B2533E0A269954220D0FD
:401EC000A37913F0400F0FD0012304F124019AF8010000F079FE18B10120E071BDE8F88FA37923F04003A371214651F8240B01232A46407800F02EFE18B10120E071BDE849
:401F0000F88FA561A168C1F30801C1F50075AE4200D23546203121442A4604314046FEF721FFA844A3682B44A3603B682B443B60761B002E7FF46AAF0020BDE8F88FBDE89E
:401F4000F88F0720BDE8F88F2DE9F84F0446884616461F4600233B60FFF7E2F8002840F0C780E079002840F0C680A37913F0020F00F0C080A368F342C0F0AB800026A8E004
:401F8000A268C2F30803002B40F0888020688378013BDBB213EA52291FD132B9236943B90021FFF745FC034603E06169FFF740FC0346002B00F09080012B03D10220E07166
:401FC000BDE8F88FB3F1FF3F03D10120E071BDE8F88F6361226902B92361A37913F0400F10D0214651F8240B0123A269407800F0EBFD18B10120E071BDE8F88FA37923F051
:402000004003A371D4F800A061695046FFF7BCFA054618B90220E071BDE8F88F4D445FEA562B26D009EB0B039AF80220934201D9C9EB020B5B462A4641469AF8010000F084
:40204000C3FD18B10120E071BDE8F88FA169491B8B450BD94FF4007208EB412104F12400FEF780FEA37923F04003A3714FEA4B2527E0A3699D4210D0A268E3689A420CD271
:4020800001232A4604F124019AF8010000F062FD18B10120E071BDE8F88FA561A068C0F30800C0F50075AE4200D23546203020442A4641460430FEF755FEA37943F0400340
:4020C000A371A844A3682B44A3603B682B443B60761B002E7FF454AFA368E268934200D9E360A37943F02003A3710020BDE8F88FBDE8F88F0720BDE8F88F00BF70B582B0D4
:4021000004460E460A2902D10D21FFF7F7FF6368002B16DB5D1C23441E733C2D0DDD01AB2A4604F10C012068FFF70EFF019B9D4201D1002501E04FF0FF356560A3680133C3
:40214000A36002B070BD00BF38B50446FEF7E8FF002843D1A27912F0200F40D012F0400F0DD0214651F8240B0123A269407800F02BFD002834D1A37923F04003A371E1690A
:402180002068FEF769FF68BB256AEB7A43F02003EB72237B2B77637B6B77A37BAB77E37BEB7721692846FEF719FEFEF7ABFCA875C0F30723EB75C0F307432B76000E6876EC
:4021C0000023AB74EB74A37923F02003A371236801221A712068FFF779F938BD38BD38BD012038BD38BD00BF10B50446FFF7ACFF034630B92046FEF793FF034608B900220B
:402200002260184610BD00BFF8B504460D46FEF787FF0646002840F0A380E079002840F0A180E368AB4204D2A27912F0020F00D11D46A3680022A260002D5CD02068877855
:402240007F026BB16A1EB2FBF7F2013BB3FBF7F18A4205D37A421340A360ED1A616911E0216971B9FFF7E4FA0146012802D10220E071F8BDB0F1FF3F02D10120E071F8BD8D
:402280002061616119BB002538E0A37913F0020F05D02068FFF7CCFA014620B91AE02068FFF77EF90146B1F1FF3F02D10120E071F8BD012903D923685B69994202D302202A
:4022C000E071F8BD6161A3683B44A360ED1BBD42DBD800E03D46A3682B44A360C5F308035BB12068FFF750F910B90220E071F8BD00EB552502E0002500E00025A368C3F336
:40230000080313B3A26995421FD0A37913F0400F0ED0214651F8240B0123407800F054FC10B10120E071F8BDA37923F04003A371214651F8240B01232A46407800F00AFC25
:4023400010B10120E071F8BDA561A368E268934207D9E360A37943F02003A3713046F8BDF8BD3046F8BD00BF30B587B0019170B30546002201A905A8FEF7EEFE044608BB4F
:40238000059B2B6002ABAB6101992846FFF762FB0446A0B9696949B1CB7A13F0100F04D00598FEF70BFDA86000E005243CB9059BDB88AB8000212846FFF768F90446042C06
:4023C00000D105242CB100232B60204602E0092000E0204607B030BDF0B585B005460F46FEF79EFE044618BB2FB900212846FFF74DF904461CE001ABAB6100212846FFF79F
:40240000ABFB0646042802D100232B61264676B939462846FEF7ECFC00212846FFF764FA0446042804D100232B61344600E03446204605B0F0BD00BF30B58DB00CAB43F84B
:402440002C0D0D460022194605A8FEF785FE044680B902AB0B93019905A8FFF7FBFA044640B90A9B2BB12DB1294605A8FEF7C0FC00E0062420460DB030BD00BF00B595B0E8
:402480000191002302930393014601A8FFF736FE029A002A0BDB6B4604A90198FFF754FD40B9009B029A9A4207D1039807E04FF0FF3004E04FF0FF3001E04FF0FF3015B0FE
:4024C0005DF804FB10B594B00446019100230293039303E0013401A8FFF710FE21780029F8D1029A002A0BDB6B4604A90198FFF72BFD40B9009B029A9A4207D1039807E0DE
:402500004FF0FF3004E04FF0FF3001E04FF0FF3014B010BD0EB42DE9F0479BB023AB53F8046B01900022029203921993741C3178002900F00281252904D001A8FFF7DEFD20
:402540002646F3E7B31C7178302903D1F31CB178012706E02D2903D1F31CB178022700E000271E46002406E004EB84046300CC18303C31780136A1F13002D2B2092AF3D999
:402580006C2901D04C2903D147F0040731780136002900F0D280A1F16103DBB2192B03D8A1F12003DBB200E00B46A3F14202162A48D8DFE802F04B39414747474747474723
:4025C0004747474E4747470C474147474400199B1A1D1992D3F80080002500E0013518F80530002BFAD117F0020F05D00EE0202101A8FFF783FD3D466F1CA542F7D33D46A9
:4026000004E008F1010801A8FFF778FD98F800100029F6D104E0202101A8FFF76FFD3D466F1CA542F7D381E7199B1A1D1992197801A8FFF763FD79E74FF00A080BE04FF0B8
:40264000100808E001A8FFF759FD6FE74FF0020801E04FF0080817F0040F05D0199A101D1990D2F800E00CE0442B05D1199A101D1990D2F800E004E0199A101D1990D2F8D9
:4026800000E0442B06D1BEF1000F03DACEF1000E47F008074FF0000C00E0AC46BEFBF8F308FB13E2D2B29E46092A06D9782901D1272000E007201044C2B20CF10105303225
:4026C0001AA8604400F8182C0BB10F2DE5D917F0080F06D01AAB1D442D2305F8183C0CF1020517F0010F02D04FF0300A01E04FF0200AA84604E0514601A8FFF7FFFCC84606
:4027000017F0020F04D108F10109A045F3D3C846013D1AAB2B4413F8181C01A8FFF7EEFC002DF5D104E0514601A8FFF7E7FCA84608F10105A045F6D3F8E6029A002A0BDBA1
:4027400018AB04A90198FFF7FFFB40B9189B029A9A4207D1039807E04FF0FF3004E04FF0FF3001E04FF0FF301BB0BDE8F04703B0704700BF08B501F0D3FF02F025F810F074
:40278000080FFAD001F0D8FF08BD00BF10B50446FF2001F0C5FF02F017F810F0080FFAD001F0CAFF207010BD08B5012002F018F8FF20FFF7DFFF08BD10B50446012002F056
:4027C0003BF9002002F038F9A0B202F025F910BD10B54CF25030FFF7EFFFFF20FFF7CAFFFF20FFF7C7FF044602F01CF9FF2C01D00028F5D1204610BD08B5002001F0F0FFE8
:40280000FFF7E6FFFF2803D0FFF7CEFF002008BD012008BD70B504460E4610F0800F26D000F07F04FFF7C0FFFFF7E6FF00284FD07720FFF79FFF0020FFF79CFF0020FFF7B1
:4028400099FF0020FFF796FF0020FFF793FF0120FFF790FF0A25FF20FFF78CFF10F0800F03D06B1E13F0FF05F5D1012833D8FFF79BFFFFF7C1FF68B344F04000FFF77AFFC8
:40288000300EFFF777FFC6F30740FFF773FFC6F30720FFF76FFFF0B2FFF76CFF0CB1012000E09520082C00D18720FFF763FF0C2C02D1FF20FFF75EFF1424FF20FFF75AFF25
:4028C00010F0800F07D0631E13F0FF04F5D170BDFF2070BDFF2070BD08B5FFF78DFFFFF763FF034A137843F00103137008BD00BFD080FF1F70B505460C46FFF769FFFF28FE
:4029000020D12046FFF736FFFD2C1DD04FF400762C4614F8020BFFF72DFF6878FFF72AFF2546023EF4D1FF20FFF724FFFF20FFF721FFFF20FFF71EFF00F01F00052805D07A
:40294000002070BD002070BD012070BD012070BD10B50446012002F075F8002002F072F8A0B202F049F810BDF8B504460E4641F28830FFF7EDFFFF20FFF7FCFE0546FF282B
:4029800003D102F03FF80028F5D1FE2D19D1651C2046FFF7FBFEA71C2846FFF7F7FEE51C3846FFF7F3FE28460434FFF7EFFE043EEDD1FF20FFF7DEFEFF20FFF7DBFE012036
:4029C000F8BD0020F8BD00BF002840F0AE80594B1B7813F0020F03D0564B1878C0B2704770B582B00121172001F03CFF002404E0FF20FFF7BFFE0134E4B21D2CF8D90021D4
:402A00000846FFF707FF0546012867D14FF47A70FFF79EFF4FF4D5710820FFF7FBFE01283ED109E0FF20FFF7A5FE02AB234403F8040C0134E4B200E00024032CF2D99DF8EA
:402A40000630012B4CD19DF80730AA2B4AD101F0D9FF30B14FF08041A920FFF7DBFE0028F5D101F0CFFF00283ED000213A20FFF7D1FE58B100243EE0FF20FFF77BFE02AB30
:402A8000234403F8040C0134E4B200E00024032CF2D99DF8043013F0400F27D00C242AE00021A920FFF7B6FE012802D80224A92601E00124264601F0A5FF28B1002130468C
:402AC000FFF7A8FE0028F6D101F09CFF80B14FF400711020FFF79EFE60B90CE000240AE0002408E0002406E0002404E0042402E0002400E00024104B1C60FFF755FE4CB198
:402B00000C4A137803F0FE0313700121084601F0A9FE06E02A4600210848FEF715F9FFF7DBFE044B1878C0B201E00120704702B070BD00BFD080FF1FC882FF1F7458000052
:402B400018B9034B1878C0B270470120704700BFD080FF1F70BB70B50D461C4663B3184B1B7813F0010F29D1164B1B6813F0080F00D15202012C01D9122600E0112611468A
:402B80003046FFF747FE78B94FF400712846FFF7EBFE18B105F50075013CF5D1122E03D100210C20FFF736FEFFF7FEFD201C18BF012070BD04207047042070BD032070BD9E
:402BC000D080FF1FC882FF1F002846D170B50D4616461C46002B42D0244B1B7813F0010F3FD1224B1B7813F0040F3CD1204B1B6813F0080F00D15602012C0AD1314618201D
:402C0000FFF708FE18BBFE212846FFF773FED8B91DE013F0060F03D021469720FFF7FAFD31461920FFF7F6FD88B9FC212846FFF761FE18B105F50075013CF6D1FD21002019
:402C4000FFF758FE10B102E0002400E00124FFF7ABFD201C18BF012070BD04207047042070BD032070BD022070BD00BFD080FF1FC882FF1F002840F02681964B1B7813F067
:402C8000010F40F0228130B585B014460E2900F2FD80DFE811F00F0018005A005F00FB00FB00FB00FB00FB00FB00BA00BF00CD00D900EC00FFF7A0FD002800F0E980FFF778
:402CC00073FD0024FBE000210920FFF7A3FD002840F0E08010216846FFF746FE002800F0DB809DF800309B09012B0AD19DF809309DF8082003EB022301339B0223600024BB
:402D0000DDE09DF805209DF80A109DF809305B0002F00F0202EBD11203F0060313440233DBB29DF808109DF80720920002EB91119DF80620920202F440620A440132093B26
:402D400002FA03F323600024B9E04FF4007313800024B4E0604B1B6813F0040F21D000218D20FFF757FD002840F09880FF20FFF701FD10216846FFF7F7FD38B901249EE0F3
:402D8000FF20FFF7F7FC013DEDB200E03025002DF6D19DF80A301A0910239340236000248DE000210920FFF735FD002878D110216846FFF7D9FD002874D0474B1B6813F0E7
:402DC000020F11D09DF80A305B0003F07E039DF80B2003EBD21301339DF80D209209013A9340236000246AE09DF80A30C3F384019DF80B30DA0002F0180202EB5312531C9F
:402E000001FB03332360002459E0334B1B681370002454E000210920FFF7FCFC002843D110212046FFF7A0FD00283FD1012446E000210A20FFF7EEFCD0BB10212046FFF740
:402E400093FDB8BB01243AE000213A20FFF7E2FC40B1012433E0FF20FFF78CFC60550135EDB200E00025032DF5D9002427E000218D20FFF7CFFCF8B9FF20FFF77BFC402116
:402E80002046FFF771FDC8B9012418E0042416E0012414E0012412E0012410E001240EE001240CE001240AE0012408E0002406E0012404E0002402E0012400E00024FFF7CF
:402EC00073FC204603E0042070470320704705B030BD00BFD080FF1FC882FF1F2DE9F04705460E4617469846DDF8209000F050F9284600F05BF9304600F058F97540002407
:402F000005E0385D454000F051F9013424B2B442F7DB284600F04AF9B8F1000F02D098F8006000E000260A2000F024F901F0C8FDF01CC0B200F048F900F048F90546012823
:402F400026D0831E052B1CD8DFE803F003070B0F13172548FDF7F4FD17E02448FDF7F0FD13E02348FDF7ECFD0FE02248FDF7E8FD0BE02148FDF7E4FD07E02048FDF7E0FD42
:402F800003E001461E48FDF7DFFE00F007F927E000F01CF90746B8F1000F01D088F8000085EA07085FFA88F800240EE000F00EF988EA00085FFA88F8B9F1000F03D0B24528
:402FC00001DA09F80400013424B2A246BC42EDDB012000F0FBF8804500D0022500F0DEF82846BDE8F08700BF8458000098580000AC580000C8580000DC580000F0580000FD
:403000000059000000B585B001208DF80F0000218DF80C1003AB00930DF10F030A46FFF75DFF012802D19DF80C0000E07F2005B05DF804FB00B587B008238DF8173003AB2D
:4030400000210391049100930DF117030A460320FFF744FF012802D10398049901E00020014607B05DF804FB10B588B000240394049405940694ADF81C408DF80C008DF88E
:403080000D10214608E0881C5C5C0DF1200E704400F8144C0131C9B29142F4D3DDE90A2313430CD10A210EE003F10A020AA9C95C08A8024402F8141C0133DBB200E00023CE
:4030C000072BF1D912210023009303AA2020FFF705FF08B010BD00BF10B584B004AC44F8041DCDE90023234604224921FFF7BCFF04B010BD10B584B004AC44F8041DCDE9FA
:403100000023234604226621FFF7AEFF04B010BD08B500220023FFF7DFFF08BD08B500220023FFF7E7FF08BD30B585B005460C460021ADF80C1004AB022203F8052D03AAAE
:4031400000920A462220FFF7C9FE9DF80C302B709DF80D30237005B030BD00BF00B583B0002100910B460A462420FFF7B7FE03B05DF804FB08B501F0DDF908BD08B501F014
:40318000CBFC01F065FC01F0E9FC01F0D9FC08BD08B5002001F0E4FC08BD00BF08B5012001F0DEFC142001F0DBF908BD10B50446142001F0D5F9204601F070FC01F062FCE8
:4031C00010F0010FFAD010BD704700BF08B5002001F064FC01F056FC10F0010FFAD001F069FC08BDA0F13003DBB2092B01D830387047A0F14103DBB2052B01D8373870473E
:40320000A0F16103DBB2052B01D8573870474FF0FF307047F8B505460E4602F014F9532837D86C1C2B78242B35D1002501E001345D40237843B12A2B06D01F4A12681A4470
:40324000527812F0970FF2D12A2B13D16078FFF7C9FF0646B0F1FF3F1FD0E71CA078FFF7C1FFB0F1FF3F1AD040EA0610A84218D13C4600E0BEB92378BBB11049204602F0F2
:40328000D0F8A0B10E49204602F0CBF888B90120F8BD0020F8BD0020F8BD0020F8BD0020F8BD0020F8BD0020F8BD0120F8BD0120F8BD0020F8BD00BFE480FF1FDC5500007B
:4032C000785700000EB42DE9F04F84B004460DAB53F8045B039307460026A9E201353B2B00F0A38217B9002E00F0A882443B302B00F2A682DFE813F08E01A402A402A4026C
:40330000A402A402A402A402A402A402A402A402A402A402A402A402F101A402A402A402A402A402A402A402A402A402A4027F02A402A402A40231004F00A4028B00A4028D
:40334000A4021601A402A402A402A402A402A402A402A402A4023A015B01AFB13B78A24A12681A44527812F0970F05D02C2B05D02A2B05D1002204E0002202E0002200E0A2
:40338000012212B9002300E00023039A111D0391126813702FE277B33B78934A12681A44527812F0970F05D02C2B05D02A2B05D1002204E0002202E0002200E00122E2B19A
:4033C000453B122B00F23E82DFE813F013003C023C023C023C023C023C023C023C0213003C023C023C023C0219003C023C023C021900012105E0002103E0002101E04FF04E
:40340000FF31039B1A1D03921B681960F3E1002F4DD100204FF0FF32864666E02B2B05D1BEF1000F02D1B2F1FF3F37D02D2B05D1BEF1000F02D1B2F1FF3F32D011F0040FD8
:403440001CD0303BB2F1FF3F00D100226FF00041C91ADFF898C18CFB018CC917C1EBAC018A4202DD002840D1FDE102EB820251005A18D0B100EB8003580016E02E2B00D1C4
:4034800090B1202B40F0E081BEF1000F40F0DE81B2F1FF3F40F0DC8138B1DBE14FF0010E03E04FF0FF3E00E00120013703E000204FF0FF3286463B784B4909681944497894
:4034C00011F0970F06D02C2B07D02A2B08D14FF0000C07E04FF0000C04E04FF0000C01E04FF0010CBCF1000F98D1BEF1000F00D118B1B2F1FF3F00F0AF81B2F1FF3F01D0EA
:4035000018B103E00020024600E00120BEF1000F01D00EFB02F2039B191D03911B681A60586068E1DFB10A2202A9384602F01AF8029B1A782C4B1B6813445B7813F0970F9F
:4035400005D02C2A05D02A2A05D1002304E0002302E0002300E0012313B1002083E10020039B1A1D03921B68186044E1039B1A1D039219681FB917E001370A7001313A78AC
:40358000194B1B6813445B7813F0970F05D02C2A05D02A2A05D1002304E0002302E0002300E00123002BE7D100230B7023E1002F00F054813B78242B40F0528100231BE058
:4035C0000133F95C084A12680A44527812F0970F05D02C2905D02A290AD1002209E0002207E0002205E000BFE480FF1F676666660122002A00F03681042BE1DD039B1A1DDE
:4036000003921B6857F8012F1A603A791A7100225A71F0E0039B1A1D0392D3F80080002F50D03878924B19680B185B7813F0970F05D02C2805D02A2805D1002304E000237D
:4036400002E0002300E0012363B94FF0FF30074682463BE0FA5C0A44527812F0040F2FD0013300E00023052BF4DD8DF800007B788DF801304FF000098DF80290BB788DF888
:403680000430FB788DF805308DF806903B798DF808307B798DF809308DF80A900A224946684601F05FFF82460A22494601A801F059FF07460A22494602A801F053FF05E045
:4036C0000020D0E04FF0FF3007468246C8F800A0C8F80470C8F808008DE0039B1A1D0392D3F80080002F77D03878614B19680B185B7813F0970F05D02C2805D02A2805D1E1
:40370000002304E0002302E0002300E001236BB94FF0FF33184699469A4662E0FA5C0A44527812F0040F55D0013300E00023052BF4DD8DF800007B788DF801304FF0000B0A
:403740008DF802B0BB788DF80430FB788DF805308DF806B03B798DF808307B798DF809308DF80AB00A225946684601F0FBFE82460A22594601A801F0F5FE81460A22594647
:4037800002A801F0EFFE07F1070CBB792E2B0FD05B4626E001EB81035F000CF1010C0BEB0703A3F13001334BA3FB0223DA0801E0314A00219CF800B02D4B1B6803EB0B0EDF
:4037C0009EF8013013F0040F01D0012AE2D802FB01F306E0002046E04FF0FF33184699469A46C8F800A0C8F80490C8F80800C8F80C3000E0013422781D4B1B6813445B784F
:4038000013F0970F05D02C2A05D02A2A05D1002304E0002302E0002300E00123002BE9D12C2A04D10134274602E0012600E000272B78002B7FF452AD012014E0002012E059
:40384000002010E000200EE000200CE000200AE0002008E0002006E0002004E0002002E0002000E0002004B0BDE8F04F03B07047E480FF1FCDCCCCCC40420F0010B582B0A3
:403880000446FFF7C7FC002837D06A4626492046FFF718FDA0B325490DF1020001F0C1FD88B323490DF1020001F0BBFD68B321490DF1020001F0B5FD48B31F490DF10200FB
:4038C00001F0AFFD28B31D490DF1020001F0A9FD08B31B490DF1020001F0A3FDE8B119490DF1020001F09DFDC8B117490DF1020001F097FDA8B9082014E04FF0FF3011E0E3
:403900004FF0FF300EE001200CE002200AE0032008E0042006E0052004E0062002E0072000E0002002B010BD1059000014590000185900001C590000205900002459000094
:40394000285900002C5900003059000030B591B0044608460AAB099304F14003089304F13403079304F12C03069304F1240305930BAB049304F11C0303930CAB029304F167
:40398000140301930DF13703009323460EAA1349FFF798FC0546E8B111490DF13A0001F040FDB0B99DF83730412B14BF00230123237462690C9B03FB02F36361E2690B9B4A
:4039C00003FB02F3E361226C0A9B03FB02F3236400E00025284611B030BD00BF345900001459000030B591B00446084604F148030B9304F144030A9304F13C03099304F1CF
:403A00003803089304F13003079304F12803069304F12403059304F1200304930CAB039304F1180302930DAB019304F11003009323460EAA0C49FFF745FC054688B10B4974
:403A40000DF13A0001F0EDFC50B922690D9B03FB02F32361A2690C9B03FB02F3A36100E00025284611B030BD445900001859000010B592B00346084603F148020F9203F138
:403A800040020E9203F138020D9203F134020C9203F130020B9203F12C020A9203F12802099203F12402089203F12002079203F11C02069203F11802059203F11402049203
:403AC00003F11002039203F10C02029203F1080201921A1D009210AA0749FFF7F3FB044630B106490DF1420001F09BFC00B10024204612B010BD00BF545900001C59000060
:403B000030B58BB00446084604F12103059304F12003049304F11003039306AB029304F10803019307AB0093234608AA0C49FFF7C9FB054688B10B490DF1220001F071FC30
:403B400050B92268079B03FB02F32360A268069B03FB02F3A36000E0002528460BB030BD685900002059000010B58AB00346084603F14002069203F13802059203F1300255
:403B8000049203F12802039203F12002029203F11802019203F11002009208AA0749FFF791FB044630B106490DF1220001F039FC00B1002420460AB010BD00BF7459000047
:403BC0002459000030B58DB0044608460DF12303079309AB069304F1180305930DF12503049304F1100303930DF12603029304F1080301930DF12703009323460AAA1649F9
:403C0000FFF760FB054618B314490DF12A0001F008FCA0B99DF82730542B12D19DF826304D2B10D19DF825304E2B0ED19DF824304B2B0CD19DF8233084F8203008E0002579
:403C400006E0002504E0002502E0002500E0002528460DB030BD00BF985900002C590000F0B40022174611E050F82760F3B226F0FF0608E001EB420511F812406D78A555DF
:403C80000132013BDBB2002BF4D10137262FEBD9F0BC7047064B1B78DBB203F00701054A11701B09013213704422034B1A707047CF0100496E5800407658004008B50A461F
:403CC000002101F0A6FB08BD38B50122354B1A801823354A13702F210232118002321370332232490A80192502310D7002310A802F4A15704F210232118002321570EF2118
:403D000002321180023213704FF41C72294B1A8002331D70632202331A801B2202331A70022203F262231A7008224FF040231A70042203F500731A701F4B1B78DBB21F4A8A
:403D4000137000241E4B1C804FF4716203F21E231A8041F25122023B1A800CE0194B1B7803F0010343EA440404F003044FF4F07000F01AFF013D0DB1032CEFD1104B0722CF
:403D80001A70002210490A704820023108701A700222033B1A7003F2A1331A78FF221A7038BD00BF8040004082400040884000408E4000409840004089010049A146004017
:403DC00004400040254200400640004008B501F015FB08BD38B572B600240CE0374D630019194A0011462A44084691882858FFF765FF0134E4B2092CF0D900240CE02F48B1
:403E0000A20011194B000344B3F84420196CD86BFFF7DCFF0134E4B2032CF0D928494FF09040FFF71DFF274A137843F0020313701032137843F002031370234C237843F0AB
:403E400040032370A2F58632513A137843F0100313700A221D491E48FFF7B8FF0A221D491D48FFF7B3FF0A221C491D48FFF7AEFF0A221C491C48FFF7A9FF08221B491C48DC
:403E8000FFF7A4FF0A221B491B48FFF79FFF1B4A137843F008031370194D61232B70FFF713FFC1232B700122164B1A70FFF7F2FE0E2221461448FFF789FF38BDAC590000C6
:403EC0009C00004803500140A04300406C1200480051004078120048C051004084120048F051004090120048105100409C12004822510040A41200483051004022430040B6
:403F00000048004004000840B043004008B501F049FA03680C2B00D1FEE7FEE708B5104E104D16E029686B68AC68002204E051F8040B43F8040B0432A242F8D1E868002269
:403F400003E0002143F8041B04328242F9D11035013E002EE6D101F02BFAFCF771FBFEE701000000385B000008B5104A104B1A60104A136843F40073136000230AE0032BAF
:403F800003D80D4A52F8231000E00C490C4A42F8231001332F2BF2D90A4B1A780A4B1A70074A0A4B1A60FFF715FF08BD0004FA050CED00E014ED00E0000000000D3F000043
:403FC0000080FF1FBC760040C080FF1F08ED00E008B50D49002000F0CDFA0721002000F0DDFA0023094A13707221094A11702021033A11700621A2F5AE721170472110321D
:4040000011704932137008BD0D410000CC82FF1F8A65004010B500F0CFFD04460B4A137843F020031370033A137843F0100313700122074B1A60074A137843F010031370AA
:4040400000F04CFA204600F0BBFD10BD9A65004000E100E09464004008B5054B5B7823B9FFF7B6FF0122024B5A70FFF7D3FF08BDCC82FF1F0122194B1A60194A9378DBB261
:40408000D178C9B2127912F0FF0F01D18B4211D0144AD05CC0B20133DBB2072B00D900230F4A9370137913F0FF0F13D000220C4B1A710FE00C4B1B78DBB213F0200F06D0E8
:4040C0000A4A1078C0B213F01E0F02D102E0002000E000200122064B1A60704780E100E0CC82FF1F048DFF1F676500404B65004000E100E0034B1B7813F0040FFAD1024BA0
:404100001870704764640040446400401D4B1B78DBB213F01E0F05D01B4803F01E0201780A43027003F0200303F0FF0233B3174B1978C9B2164B1B78DBB21648C154164B62
:404140001B7813F0FF0F02D00121144B197010490B780133DBB20B700B78DBB2072B02D900210B4B19700A4B1978C9B20C4B1B78DBB2994202D10121074B1970002AC5D147
:40418000704700BF67650040CC82FF1F4B650040CF82FF1F048DFF1FD082FF1FD182FF1FCE82FF1F08B50D49012000F0E3F90721012000F0F3F90023094A13707221094AB0
:4041C00011702021023211700621613A11704721103211705232137008BD00BFC9420000D382FF1F8B64004010B500F0E5FC04460B4A137843F0200313700232137843F017
:40420000100313700222074B1A60074A137843F01003137000F070F9204600F0D1FC10BD9B64004000E100E09E64004008B5054B5B7823B9FFF7B6FF0122024B5A70FFF731
:40424000D3FF08BDD382FF1F0222194B1A60194A9378DBB2D178C9B2127912F0FF0F01D18B4211D0144AD05CC0B20133DBB2072B00D900230F4A9370137913F0FF0F13D091
:4042800000220C4B1A710FE00C4B1B78DBB213F0200F06D00A4A1078C0B213F01E0F02D102E0002000E000200222064B1A60704780E100E0D382FF1F0C8DFF1F6D64004017
:4042C0004864004000E100E01D4B1B78DBB213F01E0F05D01B4803F01E0201780A43027003F0200303F0FF0233B3174B1978C9B2164B1B78DBB21648C154164B1B7813F08D
:40430000FF0F02D00121144B197010490B780133DBB20B700B78DBB2072B02D900210B4B19700A4B1978C9B20C4B1B78DBB2994202D10121074B1970002AC5D1704700BFA5
:404340006D640040D382FF1F48640040D682FF1F0C8DFF1FD782FF1FD882FF1FD582FF1F08B50D49022000F005F90721022000F015F90023094A13707221094A1170202130
:404380000132117006215B3A11704721103211705032137008BD00BF05440000DA82FF1F8964004010B500F007FC04460B4A137843F0200313700132137843F01003137026
:4043C0000422074B1A60074A137843F01003137000F0A0F8204600F0F3FB10BD9964004000E100E09F64004008B5054B5B7823B9FFF7B6FF0122024B5A70FFF7D3FF08BD1E
:40440000DA82FF1F1D4B1B78DBB213F01E0F05D01B4803F01E0201780A43027003F0200303F0FF0233B3174B1978C9B2164B1B78DBB21648C154164B1B7813F0FF0F02D09E
:404440000121144B197010490B780133DBB20B700B78DBB2072B02D900210B4B19700A4B1978C9B20C4B1B78DBB2994202D10121074B1970002AC5D1704700BF6A64004036
:40448000DA82FF1F49650040DD82FF1F148DFF1FDE82FF1FDF82FF1FDC82FF1F044A137803F0DF03400100F0200018431070704710510040044A137803F0FB03800000F073
:4044C000040018431070704730510040024B1878C0F38000704700BF31510040054A137843F0080313701032137843F008031370704700BFA2430040054A137843F0400309
:4045000013701032137843F040031370704700BFA2430040054A137843F0040313701032137843F004031370704700BFA243004001BE704710B5044605E0084B186800F0AE
:4045400033FBA4F50044B4F5004FF6D8034B586800FB04F000F028FB10BD00BFD480FF1F08B5034B1B7A00FB03F000F01DFB08BDD480FF1F70B504460E46074B1D681F28AE
:4045800002D90020FFF7D4FF04F01F04103455F8240045F8246070BD08ED00E038B504460D46072902D90020FFF7C2FF1F2C02D90020FFF7BDFF04F01F0000F1604000F5AB
:4045C00064406D01EDB2057038BD00BF08B500F0F3FA094A137843F020031370A2F58072137843F0100313700432137843F01003137000F0E5FA08BD98650040014B18787C
:40460000704700BF68640040014B1878704700BF6C640040034B1B7813F0040FFAD0024B187070476864004048650040014B1878704700BF5865004001E0044B1B78044BEF
:404640001B7813F0200FF8D1704700BF586500406C64004008B501E00A4B1B780A4B1B7813F0200FF8D100F0A7FA084B1A7842F001021A701A7802F0FE021A7000F0A0FAF3
:4046800008BD00BF586500406C6400409865004008B50F22064B1A70FFF7DCFFFFF7AEFFFFF7B2FF0023034A13700432137008BD886500408864004008B5054B1B7823B902
:4046C000FFF7E6FF0122024B1A70FFF77FFF08BDE182FF1F704700BF08B500F06DFA094A137843F020031370A2F20112137843F0100313700132137843F01003137000F078
:404700005FFA08BD96650040014B1878704700BF65640040014B1878704700BF66640040034B1B7813F0040FFAD0024B187070476564004046640040014B1878704700BFD7
:404740005664004008B501E00A4B1B780A4B1B7813F0200FF8D100F02FFA084B1A7842F001021A701A7802F0FE021A7000F028FA08BD00BF56640040666400409664004037
:4047800008B50F22064B1A70FFF7DCFFFFF7BCFFFFF7C0FF0023034A13700132137008BD866500408564004008B5054B1B7823B9FFF7E6FF0122024B1A70FFF78DFF08BD9F
:4047C000E282FF1F704700BF034B1B78034A1078184300F0EF0070476664004065640040044A137803F0FD03400000F0020018431070704700510040014B1B6818657047E3
:4048000008ED00E04001C0B2014B1870704700BF04E400E01022014B1A60704700E100E01022014B1A60704780E100E010B50446FFF7F6FF2046FFF7DFFF0720FFF7E2FF4C
:40484000FFF7E8FF10BD00BF014B188880B270479C400040024B187800F00700704700BF9E40004070B504460D46FFF7F3FF0646FFF7EAFFA04258D02C4B1B7803F0800317
:40488000DBB296B900B184B938B9294B1C80294A137803F0BF03137070BD264A137843F040031370224B1C8070BD23B3002222490A7080260F310E7004310A700C390A78E9
:4048C00002F07F020A701B4A127812F0080F00D08CB91A4A10800721013A1170164A127812F0010FFAD111490A7802F07F020A700021114A11700D4A127812F0800F0DD0FA
:404900000E4B1C800DB1032200E001220A4B1A70094B1B7813F0010FFAD170BD044A148002F2063211780B43137070BDA24300409C4000409E4000400140004002400040D4
:40494000044A137803F0FD03400000F0020018431070704720510040014B1B685865704708ED00E04001C0B2014B1870704700BF05E400E02022014B1A60704700E100E098
:404980002022014B1A60704780E100E010B50446FFF7F6FF2046FFF7DFFF0720FFF7E2FFFFF7E8FF10BD00BF014B1B689865704708ED00E04001C0B2014B1870704700BF07
:4049C00006E400E04022014B1A60704700E100E04022014B1A60704780E100E010B50446FFF7F6FF2046FFF7DFFF0720FFF7E2FFFFF7E8FF10BD00BF014B1880704700BF38
:404A000000680040024B1B78024B188880B270470064004080680040014B1880704700BF04680040024B1B78024B188880B270470264004084680040014B1870704700BF74
:404A400073640040014B1870704700BF7064004008B500F0B1F80A4A137843F0200313700132137843F010031370FE3A137843F01003137000F0A4F800F07EF808BD00BF2A
:404A800094650040014B1878704700BF65650040014B1878704700BF67640040034B1B7813F0040FFAD0024B187070476565004046650040014B1878704700BF5665004075
:404AC00001E0044B1B78044B1B7813F0200FF8D1704700BF566500406764004008B501E00A4B1B780A4B1B7813F0200FF8D100F063F8084B1A7842F001021A701A7802F0BE
:404B0000FE021A7000F05CF808BD00BF56650040676400409665004008B50F22064B1A70FFF7DCFFFFF7AEFFFFF7B2FF0023034A1370FE3A137008BD846500408565004038
:404B400008B5054B1B7823B9FFF7E6FF0122024B1A70FFF77DFF08BDE382FF1F704700BF044A137803F0EF03000100F0100018431070704730510040054A137843F0100382
:404B800013701032137843F010031370704700BFA2430040024B187800F00100704700BF01510040000000000230800803D000BF01380046FCD17047EFF3108072B67047CB
:404BC00080F31088704700BF80F0004002E000BF81F0004142001FBF5FEA410392EA030F7FEA226C7FEA236C6AD04FEA1262D2EB1363C1BFD218414048404140B8BF5B42E5
:404C0000192B88BF704710F0004F40F4000020F07F4018BF404211F0004F41F4000121F07F4118BF494292EA030F3FD0A2F1010241FA03FC10EB0C00C3F1200301FA03F194
:404C400000F0004302D5494260EB4000B0F5000F13D3B0F1807F06D340084FEA310102F10102FE2A51D2B1F1004F40EBC25008BF20F0010040EA03007047490040EB0000AF
:404C800010F4000FA2F10102EDD1B0FA80FCACF1080CB2EB0C0200FA0CF0AABF00EBC25052421843BCBFD0401843704792F0000F81F4000106BF80F400000132013BB5E7D8
:404CC0004FEA41037FEA226C18BF7FEA236C21D092EA030F04D092F0000F08BF0846704790EA010F1CBF0020704712F07F4F04D1400028BF40F00040704712F100723CBF22
:404D000000F50000704700F0004343F0FE4040F4000070477FEA226216BF08467FEA23630146420206BF5FEA412390EA010F40F4800070474FF0000304E000BF10F000431F
:404D400048BF40425FEA000C08BF704743F0964301464FF000001CE050EA010208BF70474FF000030AE000BF50EA010208BF704711F0004302D5404261EB41015FEA010C67
:404D800002BF84460146002043F0B64308BFA3F18053A3F50003BCFA8CF2083AA3EBC25310DB01FA02FC634400FA02FCC2F12002BCF1004F20FA02F243EB020008BF20F08A
:404DC0000100704702F1200201FA02FCC2F1200250EA4C0021FA02F243EB020008BF20EADC7070474FF0FF0C1CEAD0521EBF1CEAD15392EA0C0F93EA0C0F6FD01A4480EAD0
:404E0000010C400218BF5FEA41211ED04FF0006343EA501043EA5111A0FB01310CF00040B1F5000F3EBF490041EAD3715B0040EA010062F17F02FD2A1DD8B3F1004F40EBEE
:404E4000C25008BF20F00100704790F0000F0CF0004C08BF49024CEA502040EA51207F3AC2BFD2F1FF0340EAC250704740F400004FF00003013A5DDC12F1190FDCBF00F0D5
:404E800000407047C2F10002410021FA02F1C2F1200200FA02FC5FEA310040F1000053EA4C0308BF20EADC70704792F0000F00F0004C02BF400010F4000F013AF9D040EA10
:404EC0000C0093F0000F01F0004C02BF490011F4000F013BF9D041EA0C018FE70CEAD15392EA0C0F18BF93EA0C0F0AD030F0004C18BF31F0004CD8D180EA010000F0004018
:404F0000704790F0000F17BF90F0004F084691F0000F91F0004F14D092EA0C0F01D142020FD193EA0C0F03D14B0218BF084608D180EA010000F0004040F0FE4040F4000073
:404F4000704740F0FE4040F4400070474FF0FF0C1CEAD0521EBF1CEAD15392EA0C0F93EA0C0F69D0A2EB030280EA010C49024FEA402037D04FF0805343EA111143EA10135B
:404F80000CF000408B4238BF5B0042F17D024FF4000C8B4224BF5B1A40EA0C00B3EB510F24BFA3EB510340EA5C00B3EB910F24BFA3EB910340EA9C00B3EBD10F24BFA3EBF9
:404FC000D10340EADC001B0118BF5FEA1C1CE0D1FD2A3FF650AF8B4240EBC25008BF20F0010070470CF0004C4CEA50207F32C2BFD2F1FF0340EAC250704740F400004FF073
:405000000003013A37E792F0000F00F0004C02BF400010F4000F013AF9D040EA0C0093F0000F01F0004C02BF490011F4000F013BF9D041EA0C0195E70CEAD15392EA0C0FA2
:4050400008D142027FF47DAF93EA0C0F7FF470AF084676E793EA0C0F04D14B023FF44CAF08466EE730F0004C18BF31F0004CCAD130F000427FF45CAF31F000437FF43CAF27
:405080005FE700BF53B94AB9002908BF00281CBF4FF0FF314FF0FF3000F082B9ADF1080C6DE904CE00F006F8DDF804E0DDE9022304B070472DE9F04F8C460C460546099E9F
:4050C000002B4FD18A4217466BD9B2FA82FEBEF1000F0BD0CEF1200520FA05F501FA0EF345EA030C02FA0EF700FA0EF5390CBCFBF1F0BAB201FB10C300FB02F84FEA154C5C
:405100004CEA0344A04509D9E41900F1FF3380F02881A04540F2258102383C44C8EB0404B4FBF1F301FB134C03FB02F2ACB244EA0C418A4209D9C91903F1FF3480F00F8150
:405140008A4240F20C81023B39448A1A43EA00400021002E63D022FA0EF2002386E80C00BDE8F08F8B4207D9002E56D0002186E811000846BDE8F08FB3FA83F1002940F0ED
:405180009380A34202D3824200F2FE80851A64EB03039C460120002E41D086E82010BDE8F08F12B90127B7FBF2F7B7FA87FEBEF1000F36D1E41B4FEA17481FFA87F901211B
:4051C000B4FBF8F308FB134409FB03F24FEA154C4CEA0444A24207D9E41903F1FF3002D2A24200F2D3800346A41AB4FBF8F008FB104809FB00F9ACB244EA0842914507D947
:40520000D21900F1FF3402D2914500F2BA802046C9EB020240EA03409BE731463046BDE8F08F07FA0EF7CEF1200C24FA0CF34FEA1748B3FBF8FA1FFA87F908FB1A3520FA20
:405240000CFC04FA0EF40AFB09FB4CEA040C4FEA1C4242EA05439B4500FA0EF50AD9DB190AF1FF3280F08B809B4540F28880AAF1020A3B44CBEB0303B3FBF8F008FB103399
:4052800000FB09F41FFA8CFC4CEA03439C4207D9DB1900F1FF326ED29C426CD902383B441C1B40EA0A418BE7C1F1200E8B4022FA0EFC4CEA030C24FA0EF74FEA1C49B7FB42
:4052C000F9FA1FFA8CF309FB1A7720FA0EF88C400AFB03F548EA04044FEA144848EA0747BD4202FA01F200FA01FB09D917EB0C070AF1FF3041D2BD423FD9AAF1020A6744D5
:405300007F1BB7FBF9F509FB157705FB03F3A4B244EA0747BB4208D917EB0C0705F1FF3027D2BB4225D9023D674445EA0A40A0FB0289FF1A4F4545464C4614D329D066B383
:40534000BBEB050367EB040707FA0EFECB40CF404EEA030386E888000021BDE8F08F2346F3E61846DAE6B8EB020569EB0C040138E5E70546D9E7104692E78246C0E79246EE
:4053800078E702383A4443E7084604E7023B3C442AE7C345E7D33C46D1E73146BDE8F08F704700BF014B1868704700BF4881FF1F0E4B70B51E460E4C0025E41AA410A54275
:4053C00004D056F8253098470135F8E700F0A2FB084B094C1E46E41AA4100025A54204D056F8253098470135F8E770BD205B0000205B0000205B0000285B000010B5431E39
:405400000A44914204D011F8014B03F8014FF8E710BD03460244934202D003F8011BFAE7704710F8012B11F8013B012A28BF9A42F7D0D01A7047034611F8012B03F8012BD2
:40544000002AF9D17047034613F8012B002AFBD1181A0138704700002DE9F0470F4680463F48D0F800903D4615F8014B09EB0400407800F0080000F0FF0608B12F46F2E722
:405480002D2C03D1BD1C7C78012603E02B2C04BF7C78BD1C13B1102B0AD15BE0302C57D1287800F0DF0058284DD16C7810230235002E14BF4FF0004C6FF0004CBCFBF3FA32
:4054C0000027384603FB1ACC09EB040E9EF801E01EF0040F01D0303C0BE01EF0030E1BD0BEF1010F0CBF4FF0370E4FF0570ECEEB0404A34210DDB7F1FF3F0AD0504506D8DB
:4055000001D1644503DC03FB0040012701E04FF0FF3715F8014BD7E77B1C0CD1002E4FF0220314BF4FF000406FF00040C8F800302AB9BDE8F08706B1404272B107B1691EBD
:405540001160BDE8F0873024002BB1D10823AFE70A23ADE7302CA3D0AAE7BDE8F08700BFE480FF1F13460A46014602480068FFF773BF00BF4881FF1F0000000038FBFF7F3D
:40558000010000000D0000000820080053697A65204F7665720A000025630000424D455F494E49540A00000046332C46342C46352C46362C46372C46382C46392C46412C08
:4055C00046422C46432C46442C46450A00000000253032582C0000000820080A0A000000247878524D432073656E74656E6365206973206E6F74207061727365640A000027
:405600002478784747412073656E74656E6365206973206E6F74207061727365640A00002478784753542073656E74656E6365206973206E6F74207061727365640A00006F
:405640002478784753412073656E74656E6365206973206E6F74207061727365640A0000247878474C4C2073656E74656E6365206973206E6F74207061727365640A000032
:405680002478785654472073656E74656E6365206973206E6F74207061727365640A000053616B7572615F494F3A57616B6555700A00000053616B757261494F5F446174F4
:4056C0006153656E64203A20253032643A253032643A253032640A0053616B7572615F494F3A456E74657220536C6565700A000053616B7572612E696F20496E69742E2ED0
:405700002E0A00002564200053616B7572612E696F20496E69745F446F6E650A00000000556E697854696D653A256C640A0000004552524F520A000044726976653A2025FF
:405740006C7520736374730D0A000000536563746F722073697A653A2025750D0A000000457261736520626C6F636B3A20256C7520736563746F72730D0A00004D4D432F3D
:4057800053444320747970653A2025750D0A000025752066696C65732C20256C752062797465732E0D0A257520666F6C646572732E0D0A007465737430312E7478740000DA
:4057C00025730D0A00000000256C752062797465730D0A000D0A456E64206F662046696C650D0A004661696C656420746F204F70656E0D0A0000000077726974653A2564BD
:4058000042797465730A000066617466735F5772697465546573740A0000000025730000546573745F57726974650A0046525F4449534B5F4552520A000000004661696C93
:40584000656420746F204F70656E0A005469636B203A20253032643A253032643A253032640A0000222A2B2C3A3B3C3D3E3F5B5D7C7F00004641494C4544212C2025750DE2
:405880000A000000434D445F4552524F525F5041524954590A000000434D445F4552524F525F4D495353494E470A0000434D445F4552524F525F494E56414C49445F535971
:4058C0004E5441580A000000434D445F4552524F525F52554E54494D450A0000434D445F4552524F525F4C4F434B45440A000000434D445F4552524F525F425553590A00D8
:405900004572723A20307825303258200000000074000000524D43004747410047534100474C4C004753540047535600565447005A44410074546366646664666644666417
:405940000000000074546664666469696666636663695F007463696969696969696969696969696666660000746664666454633B63000000745466666666666666000000EC
:40598000746969693B696969696969696969696969696969690000007466636663666366633B630074546969696969004051004030000000014080000001014000058006D3
:4059C0000140800900140140000280160140800180180140800300400140000A004C01400002005001402000800001406C100048800000060140EC100048800000160140A0
:405A00006C110048800000180140EC110048800000202020202020202020282828282820202020202020202020202020202020202088101010101010101010101010101073
:405A400010040404040404040404041010101010101041414141414101010101010101010101010101010101010101011010101010104242424242420202020202020202E8
:405A8000020202020202020202020202101010102000000000000000000000000000000000000000000000000000000000000000000000000000000000000000000000006E
:405AC00000000000000000000000000000000000000000000000000000000000000000000000000000000000000000000000000000000000000000000000000000000000A6
:405B00000000000000000000000000000000000000430000F8B500BFF8BC08BC9E4670474D000000693F0000F8B500BFF8BC08BC9E46704729000000485B0000C880FF1FFD
:405B400088000000D00B0000000000004C020000010000000000C05D80BB000030000000006CDC02105A000000000000000000000000000000000000000000000000000037
:405B80000000000000000000115B00000000000000000000000000000000000000000000000000000000000000000000000000000000000000000000000000000000000079
:405BC0000000000000000000E880FF1F000000000000000000000000000000000000000000000000000000000000000000000000000000000000000000000000000000001F
:405C00000000000000000000000000000000000000000000000000000000000000000000000000000000000000000000000000000000000000000000000000000000000064
:405C40000000000000000000000000000000000000000000000000000000000000000000000000000000000000000000000000000000000000000000000000000000000024
:405C800000000000000000000000000000000000000000000000000000000000000000000000000000000000000000000000000000000000000000000000000000000000E4
:405CC00000000000000000000000000000000000000000000000000000000000000000000000000000000000000000000000000000000000000000000000000000000000A4
:020000040003F7
:0200000480007A
:4000000007520040096400400565004027000140430101406B0201404F03014057040140430501401B060140440701406C08014048090140590A0140590B0140710C014041
:40004000510D01406C0E01403E0F01405914014052150140201601404A1701403C18014066190140651A0140531B014006400140114101400F4201400A43014006440140A0
:40008000024501400F480140134901400B4C0140034D01400A5001400251014000400160091018C0194060046104806B836B840F89728A388B728D388E0F8F0F840F860F29
:4000C0008738880F8A720604180A1F012001220A2C0D3002320C3401350138203E11403249FF4AFF4BFF4DA04F015018540B580459045A045B045C115D115F0560406280D2
:4001000064406540668068406A506BA86C406D206E506FA80108042005140680070209200D080E4610821404150416021701180419091A081D041E441F102120245125586E
:40014000274229042B202C042E422F10308831083514360137403C113D043E8040044210430447044C804E0456015714584059015B10632868026940750279408080814097
:400180008310C0F4C2F2C4F9CAF0CCF8CEF0D046D220D60DD806DE08E201020403080404070D0A020B080E0D0F081001170918051B072201230F27092B083001310132047A
:4001C000330234083504360237083A803B2A3E053F40404649FF4AFF4BFF4DA04F0150185280580459045A045B045C115D115F016040628064406540668068406A506BA84E
:400200006C406D206E506FA8810488148F0599089E02A30AA401A61CAC07B010B101B208B308B401B502B606B704B820BE11BF44C042C502C6C5C70EC81DC9FFCAFFCBFF16
:40024000CDAFCE07CF01D018D40BD804D904DA04DB04DC11DD11DF05E040E280E440E540E680E840EA50EBA8EC40ED20EE50EFA803080460050A0A020E040F80103216802A
:40028000180419011A021B581D021E141F80210122542505260127052A012C082E022FA03210340435103704388039023DAE40044102450248204F205040510852205810D6
:4002C00059015A8061086220680269407680794084108A1090409180942095049610991A9A019C449E029F01A008A150A320A601A910AA80C0F2C251C415CAE1CC64CEF987
:40030000D085D220D60DD806DE08E209E6020040020304090610081C0A220C100D02101419011A201C301E0C2220242C2611301F33013440350236203E503F144043410534
:40034000450E460B470C481549FF4AFF4BFF4EF04F44500C5401580459045A045B045C035D335F0166C06A406B028101841485018643889889408A038CE08D078F18903183
:4003800091019202952296EC970899409A019D04A101A202A501A908AB21AD10AF80B010B140B20FB380B53FB6E0B708B922BE41BF50D409D804D904DB04DF010020014246
:4003C00002100450050408800B850E280F8010101302168019921E211F0121202204266427402E862F0430203628374139803C883D223F804080410848204B4050045340F9
:40040000580159A05A085D195E80670281108410850887448C048D608F029180930194209A10A010AC40AE04B701C0EFC27BC41CCAF0CCF4CEF8D003D208D6FFD810E20659
:40044000E602819C8594870889088B408DD18F229510978C99A49B10A18CA310A561A71EA930AB8FAD9CB10FB3C1B530BB2CD440D904DB04DD40DF010410058006600D08CC
:400480000E4514011510160917091C401D0C1E401F142098221823482420251029252A402D042EA72F08321033083505374139143A023B403C983D02448045284DA84E08CD
:4004C0004F405699600163286401661067208C2194709511960497089B409D0C9E829F01A444A511A608AE01B021B120C0F0C2F0C4F0CAFFCCD6CEFFD0E0D230D87EEE80FB
:400500000014011002C9040A051006510F10100111211226135A1502171D19631B14241F2523274C281F29102D1030073260331F34183540368037203B083E043F50402636
:40054000410542044403460E47C0482449FF4AFF4BFF4C624DA04EF04F41500C5409580459045A045B045C565D565F016640670269106A306B106D106E106F12814082202D
:400580008479852086068A598B1B8C7F902691099249942095609827999F9A509B609DFFA004A11BA402A5E0A71FA806A912ADF8AF07B103B207B380B43EB578B646B704A2
:4005C000B980BAA2BB20BF04D602D711D804D904DB04DC22DD20DF01005803800404064008150E8010A81714184019441A901B101C841D081E811F2020082211232126A448
:40060000281529422B102D802F183008310132503614370238103A0A3D813E04452949204A044D404E0856815B205C025F54670268026A086B0870A8720A9140940A959994
:400640009617970998829B149D809ED5A123A208A450A720C03FC21EC46ECA7FCCEFCED7D0E0D230D6F4D8100401050109010A020C010D01130216021A04220428012F0286
:40068000300231013201340435023E113F1054185604580459045B045C365D205F018042812084018510894F8AB38B308CFF8D0390039170930F944C96A3970B98F3997854
:4006C0009A0C9B079D029E40A04FA290A404A501A80CA930AC08AD7FB138B27CB340B40FB503B68CB704B980BAAABF04C003C540C9FFCA07CBFFCC40CD20CEF0CF05D008E9
:40070000D602D712D804D904DA04DB04DC66DD63DF01E040E1A8E240E32000200312045005080640074008020A100B880D200E61112013011602172A181019141B011C4071
:400740001D201E221F112102230424842501260427012A802D482E202F2131043208330135043611374239983C803E4A3F1045084B304E8054085A025E08611063826D200E
:400780006F16762A77288340840886408C048D018E808F089380948A95019604970498809D819E15A108A240A408A680A708AA04AB01B704C0F7C2F6C4FACA78CCF1CEFE9F
:4007C000D040D641D80DE010E240EE10023004300A100B530C300D310F4E100714081531160117C6183019AC1B431F0820302407280229302A042B402F8C300C3203330F24
:40080000341035F03620378A380A3BA83E544006474049FF4A074BFF4C404D204EF04F0550085440580459045A045B045C335D565F01604061A86240632083808473860CE8
:400840008F809208951C9635972399409B039F1CA003A214A308A473A521A604A716A84AA921AA14AB0EB010B180B20FB30FB460B51AB760B820B980BA08BB28BE11BF0139
:40088000C032C106C50EC6BCC80DC9FFCAFFCBFFCEF0CF44D00CD418D604D804D904DA04DB04DC66DD66DF01E6C0EA40EB020108040A0580060408080AA00C080E94108049
:4008C00012081308140415011714181019281A401C801D081F52200821022248230825402640271429182A022F0A32583680371438803A013D803E104038450246404804CF
:4009000049104A204D204E1050A05501560259016242634466106721820284048740884096C098809C20A4A4A501A628A882AA20AB10AD10AF20B090B201C0F4C27CC47E05
:40094000CA37CC7ECE39D006D224D601D87DE620040C051406110D1C0F021009121013031510170C181019401A0C1D091E031F10201021202414281C290C2A022B112D1030
:40098000311F33403520361F3F1440354106450E46C0470B481949FF4AFF4BFF4EF04F44500C5401580459045A045B045C265D625F0166C06A406B02821C85808C5C8E03E2
:4009C000914093159461960E99339B0C9E239F08A208A503A714A861A933AA16AB04AD0AAF34B00FB160B21AB30FB460B580B710B820B902BA0ABB08BE10BF50C002C6041E
:400A0000C9FFCA07CBFFCC40CD20CEF0CF05D008D401D804D904DA04DB04DC22DD22DF01E040E1A8E240E32000080440074008200A820C080E220F0210201102120816806B
:400A400017201A021B401C401D201E201F0A2004210222042508264027682A802B482C082F22310A322033403601376038483F044108452048184A014B044F025004532046
:400A8000568058025A485B105D105E815F0881028C04C094C2ABC45ECA7DCCBFCE4AD022D20CD6FF001D010D0330041D070208020A040C0D0E101002120D1514172B180234
:400AC00019241A081B1B1D081F34200122022610281D2C1D300F33033410373C3A023B803E1056025720580459045B045C445D405F01808481D4840485C1870688568910C0
:400B00008A098BC48C848D1090079198923893239401950997C6980A99C49A109B109C60A004A1D4A280A480A5E7A604A718A884ADC4AF10B080B27FB378B408B507B6029A
:400B4000B798B808BB28BE51D409D804D904DB04DC44DD40DF010208035104040510060B074008100A800EA80F0210281201130217191A801B101C081D401E201F0221044C
:400B800022802406264C27022C022D012E0830103110328836043712380239083C043D403E925CA05D045E0262806540680A69016A106B5972027A017B02802081408301C7
:400BC00084848504861089028F209104970199109A809D029F02A020A301A608A732A810AC88C0FFC2FAC47FCAD0CCEECEF3D6F0D818E201E480E840EA06870189068B08FB
:400C0000900E910C950A97049B01A013A224A444A609A865AA1AAC40AF02B00FB10EB470B501B802B902BA20BF10D418D604D804D904DB04DC54DD30DF010524064207407C
:400C40000A400E260F401180121813021510170119101A401D201E22200421022680280229102A103008310233203564368038203B043F40461047124D844E08542055400E
:400C80005680570559026084630165406D126E046F497602820183128402870489809340960499249E429F01A420A521A71CAD21B480C0F0C2F8C45FCA08CC77CE16D0E038
:400CC000D230D601D81DE202E480E606E81080018206852987108F20900A9211931895109721983F9B029D319F08A304A43FA814AA49AB04AC20B018B138B220B301B40729
:400D0000B506B640B908BF10C063C104C205C402C50CC70EC811C9FFCAFFCBFFCC62CDA0CEF0CF41D00CD608D804D904DA04DB04DC52DD92DF01E640E702E910EA30EB10F0
:400D4000ED10EE10EF120102040A058006080A480C400D080E040F80100613081501181019111A401B801D281E201F1020042201232025102702280429012C402F193040DD
:400D80003118320136103701388039013A083B023D203E063F804054444245284608470248144A014C404F4453045480561457405880624065206C056D816E046F0975801B
:400DC0007602844087028A018D1290409208941A95999604973C988299209B089C049D839E549F02A006A102A201A410A540A610A788B220B340B504B681B701C0F8C2FA3D
:400E0000C417CAF5CCAFCEFAD0F7D21CD608D828E6040001012005300640084F09100A900CF30E0C0F0B110212B314FF1570170F180419781B071C421D032008214F2330B0
:400E4000244C26A3280C297F2C032D01300F3104328C3340347C3538370339023A2A3F0456025712580459045B045C335D305F0181108306851C891C9B209C029D049E05D0
:400E80009F19A001A202A403A720A803AD08AF06B003B320B404B503B71CBA08BF14C054C102C206C403C50EC6C0C809C9FFCAFFCBFFCC62CDA0CEF0CF41D00CD608D8046A
:400EC000D904DA04DB04DC33DD93DF01E640E702E910EA30EB10ED10EE10EF1200480248080809220B010F0110901180132015181640184019151C081F0A208222242548E8
:400F000026C02708280829012A402B4A2F223011311432883520366038283A823D103E043F0144084502468047084D204E104F8057205A085C205D806405670169986A0448
:400F400070947120720273208108880189808E10959898209C04A102A440A920AC80AD08AF50B320B420C00FC28FC47FCA5DCC3FCEEFD0E0D230D632D830E2C0E480E8407E
:400F8000EE023012350836203840CCF0CE100E0230123780620866088380862094409C109D08A402A620C280CC70D8C0E280E640062057048002830494409C109D089E084C
:400FC000A201A402A608C020D440E220E620910894409A209C109D089E08A201AE08B104EA10101070028C02C408DC01E402B010EA04060251048108820888049108944012
:401000009A209C109D089E08B601C080D420E6A00C0420405D016408840885018A2094409A209C04AC10B602C220C840D680D880E210E610EE4001200E08531062028204C4
:401040008B10C002C201D404D802E004AD20B202EC04007F08020A1B0C6C0E6C103D11011A391C2C1D0100FF01FF00000000224E2200007E0100E00E0000226E000A227463
:40108000000E22700001A27C220300040000C07E0800200E0404207A1004200AA0071F486018002800002EAA00000000360000000020E05C3AFFFFFF00AF07011800800056
:4010C0000000000004040404111100014000800040408000400050A8402050A800000000000000000000000000000000B0C00002808030000A7F7180391F422006900040C1
:40110000490034FF90002000B000006030C0800110C0000420C000080000809F0700780080FF00000A0800000000101036052000040EFBDC3DFFFFFF2200F008040000005B
:401140004000000004040404100000010000C00040011011C001001140014001000000000000000000000000000000001D0000000200A400C20008001D0100060100620084
:4011800002030D041D050002000420030D001000000000001D0000000000000000000F001000E007000008800000100063042000050EDCBF3DFFFFFF2200F0080400000069
:4011C0000000022004040404000400010000C00040011011C0010011400140010000000000000000000000000000000022D9500050D9220063200CD07208000422D80001D4
:40120000010074007224004923005800722E00810011002200D1000800D9000000001F0060F0000F080000E0000000003402100005BEFC0D1FFFFFFF2200F00C0400000023
:401240000000022404040404555500010000C00040011011C001001140014001000000000000000000000000000000000300806362006000000000003C00003C24002400AF
:40128000000000000C00000C0400040000000000E00004FB7B001800000000000002020000000000180020DCD400C0000000000000000000000000000000000000000000F0
:4012C00000000000000000000000000000000000000000000000000000000000000000000000000000000000000000000000000000000000000000000000000000000000EE
:4013000000000000000000000000000000000000000000000000000000000000000000000000000000000000000000000000000000000000000000000000000000000000AD
:40134000000000000000000000000000000000000000000000000000000000000000000000000000000000000000000000000000000000000000000000000000000000006D
:40138000000000000000000000000000000000000000000000000000000000000000000000000000000000000000000000000000000000000000000000000000000000002D
:0200000490006A
:0400000000004005B7
:0200000490105A
:04000000BC90ACAF55
:0200000490303A
:020000003026A8
:0200000490402A
:4000000000000000000000000000000000000000000000000000000000000000000000000000000000000000000000000000000000000000000000000000000000000000C0
:400040000000000000000000000000000000000000000000000000000000000000000000000000000000000000000000000000000000000000000000000000000000000080
:400080000000000000000000000000000000000000000000000000000000000000000000000000000000000000000000000000000000000000000000000000000000000040
:4000C0000000000000000000000000000000000000000000000000000000000000000000000000000000000000000000000000000000000000000000000000000000000000
:0200000490501A
:0C00000000012E16106900012E3F408FF9
:00000001FF